:100000000C9439010C945A010C945A010C945A0125
:100010000C945A010C945A010C945A010C945A01F4
:100020000C945A010C945A010C945A010C945A01E4
:100030000C945A010C945A010C945A010C945A01D4
:100040000C945A010C945A010C945A010C945A01C4
:100050000C945A010C945A010C945A010C945F02AE
:100060000C945A010C945A010C945A010C945A01A4
:100070000C945A010C945A010C945A010C945A0194
:100080000C945A010C945A010C945A010C945A0184
:100090000C945A010C945A010C945A010C945A0174
:1000A0000C945A010C945A010C945A010C945A0164
:1000B0000C945A010C945A010C945A010C945A0154
:1000C0000C945A010C945A010C945A010C945A0144
:1000D0000C945A010C945A010C945A010C945A0134
:1000E0000C945A010C94BB030C94DB010C94F701A3
:1000F0000C9401020C94E9010C94CA010C94FA03CB
:100100000C94A9030C940E040C94EF010C9422049B
:100110000C94B3030C94C3030C94B0010C94E1034E
:100120000C9404040C94D7010C94E1010C94C201CA
:100130000C94E5010C94FD010C94CE010C94F00399
:100140000C9495030C94CD030C94D1010C941804D9
:100150000C949F030C94D7030C94C6010C94F301E8
:100160000C94AB010C9456030C94900300000A0B02
:1001700002090C0D0E080703040100000000000036
:10018000000000000000000000000000000000006F
:10019000000000000000000012111000000000002C
:1001A000000000000000000000000000000000004F
:1001B000000000002200250028002B002E00310046
:1001C000340002010000050108010B0100002100BC
:1001D000240027002A002D00300033000101000018
:1001E000040107010A0105050505070508080808B7
:1001F000020202020A0A08080404040401010101BF
:1002000001010101030303030303030304070707B9
:100210000C0C0C0C0C0C0C0C02020202060606065E
:10022000060606060B0B0B0B0B0B0B0B010210202B
:10023000200808102040102040800201020108041C
:1002400002010102040810204080804020100804B0
:100250000201800402018040201008040201080409
:10026000020101020408102040800102040810204D
:10027000408011241FBECFEFD1E2DEBFCDBF00E032
:100280000CBF12E0A0E0B2E0E8E7FAE000E00BBF4C
:1002900002C007900D92A430B107D9F722E0A4E084
:1002A000B2E001C01D92AD30B207E1F70E94A90291
:1002B0000C943A050C94000090E0FC01E45DFD4FC5
:1002C00024918A519E4FFC018491882399F090E0FB
:1002D000880F991FFC01E453FE4FA591B491FC01D6
:1002E000EE54FE4F859194918FB7F894EC91E22BE8
:1002F000EC938FBF0895282F30E0F901E459FE4FA9
:100300009491F901E45DFD4F44912A513E4FF9016A
:100310002491222309F435C0992311F1915092318F
:10032000F8F4E92FF0E08827E756FE4F8F4F0C9442
:100330003205CA01CE01AB01C201C601B001D10133
:10034000D701DB01E101E501E901EF01F301B001B2
:10035000F701FD010102809180008F77809380007A
:10036000E22FF0E0EE0FFF1FEE54FE4FA591B49187
:100370008FB7F894EC91611148C040954E234C938F
:100380008FBF0895809180008F7DE8CF809180009D
:10039000877FE4CF84B58F7784BDE2CF84B58F7D2E
:1003A000FBCF8091B0008F778093B000D9CF809140
:1003B000B0008F7DF9CF809190008F77809390006F
:1003C000CFCF809190008F7DF9CF80919000877F73
:1003D000F5CF8091A0008F778093A000C1CF80914E
:1003E000A0008F7DF9CF8091A000877FF5CF80910D
:1003F00020018F7780932001B3CF809120018F7DE2
:10040000F9CF80912001877FF5CF4E2BB8CF3FB732
:10041000F8948091090290910A02A0910B02B09188
:100420000C0226B5A89B05C02F3F19F00196A11D0F
:10043000B11D3FBFBA2FA92F982F8827BC01CD012E
:10044000620F711D811D911D42E0660F771F881F8D
:10045000991F4A95D1F708958F929F92AF92BF92BC
:10046000CF92DF92EF92FF926B017C010E94070214
:100470004B015C01C114D104E104F104B9F00E9404
:100480000702681979098A099B09683E734081054A
:10049000910580F321E0C21AD108E108F10888EE45
:1004A000880E83E0981EA11CB11CE4CFFF90EF9052
:1004B000DF90CF90BF90AF909F908F9008951F9244
:1004C0000F920FB60F9211242F933F938F939F9308
:1004D000AF93BF938091050290910602A09107020D
:1004E000B09108023091040223E0230F2D3758F514
:1004F0000196A11DB11D20930402809305029093E3
:100500000602A0930702B09308028091090290911D
:100510000A02A0910B02B0910C020196A11DB11D1F
:100520008093090290930A02A0930B02B0930C02ED
:10053000BF91AF919F918F913F912F910F900FBEDF
:100540000F901F90189526E8230F0296A11DB11D4C
:10055000D2CF789484B5826084BD84B5816084BD37
:1005600085B5826085BD85B5816085BD80916E0051
:10057000816080936E001092810080918100826082
:1005800080938100809181008160809381008091BF
:1005900080008160809380008091B10084608093AE
:1005A000B1008091B00081608093B0008091910093
:1005B000826080939100809191008160809391008E
:1005C000809190008160809390008091A100826072
:1005D0008093A1008091A10081608093A10080910F
:1005E000A00081608093A0008091210182608093AF
:1005F000210180912101816080932101809120015E
:1006000081608093200180917A00846080937A00D9
:1006100080917A00826080937A0080917A00816074
:1006200080937A0080917A00806880937A0010929B
:10063000C10064E670E080E090E00E942C0287E058
:100640000E945C0186E00E945C0103E711E084E9FE
:10065000882E81E1982EA12CB12C90E0E92E90E01B
:10066000F92ECEE1D0E087E00E945C01F801849190
:10067000EFEFE80FE23108F0E5C0F0E08827EC5B2F
:10068000FC4F8F4F0C9432055603900395039F0344
:10069000A9032204B303BB03C303CD03D703E103C0
:1006A000F003FA03220404040E04180484B58068DD
:1006B00084BDC7BD6AE070E080E090E00E942C023B
:1006C0002196CF3FD10509F0CECF60E087E00E94B0
:1006D0007B016AEF70E080E090E00E942C0261E014
:1006E00086E00E947B0168EE73E080E090E00E946B
:1006F0002C0260E086E00E947B010E947704A50145
:1007000094010E94CF046C507E4F8F4F9F4F0E94E8
:100710002C02E114F10409F4A4CF0E940000A1CF3F
:1007200084B5806284BDC8BDC5CF809180008068DB
:1007300080938000D0938900C0938800BBCF8091C4
:100740008000806280938000D0938B00C0938A00E9
:10075000B1CF80918000886080938000D0938D001D
:10076000C0938C00A7CF8091B00080688093B000C8
:10077000C093B3009FCF8091B00080628093B0009F
:10078000C093B40097CF80919000806880939000D0
:10079000D0939900C09398008DCF80919000806293
:1007A00080939000D0939B00C0939A0083CF809158
:1007B0009000886080939000D0939D00C0939C002F
:1007C00079CF8091A00080688093A0008091A000E4
:1007D0008F7B8093A000D093A900C093A8006ACF1C
:1007E0008091A00080628093A000D093AB00C09362
:1007F000AA0060CF8091A00088608093A000D09371
:10080000AD00C093AC0056CF8091200180688093EA
:100810002001D0932901C09328014CCF8091200161
:10082000806280932001D0932B01C0932A0142CF94
:1008300080912001886080932001D0932D01C09386
:100840002C0138CF60E0C038D1050CF061E087E0C2
:100850000E947B012FCF8F929F92AF92BF92CF9237
:10086000DF92EF92FF92CF93DF93EC016881798161
:100870008A819B81611571058105910521F464E2EE
:1008800079ED8BE597E02DE133EF41E050E00E94F8
:10089000CF0449015A019B01AC01A7EAB1E40E94CF
:1008A000EE046B017C01ACEEB4EFA50194010E9453
:1008B000FC04C60ED71EE81EF91EF7FE06C081E036
:1008C000C81AD108E10880E8F80AC882D982EA8209
:1008D000FB82C701B6019F77DF91CF91FF90EF9028
:1008E000DF90CF90BF90AF909F908F9008958F92A0
:1008F0009F92AF92BF92CF92DF92EF92FF92609160
:100900000002709101028091020290910302611530
:1009100071058105910521F464E279ED8BE597E09D
:100920002DE133EF41E050E00E94CF0449015A012C
:100930009B01AC01A7EAB1E40E94EE046B017C01CB
:10094000ACEEB4EFA50194010E94FC04C60ED71EC4
:10095000E81EF91EF7FE06C081E0C81AD108E108BA
:1009600080E8F80AC0920002D0920102E0920202EE
:10097000F0920302C701B6019F77FF90EF90DF90DE
:10098000CF90BF90AF909F908F900895609300029A
:100990007093010280930202909303020895052E42
:1009A00097FB1EF400940E94E60457FD07D00E94B6
:1009B000010507FC03D04EF40C94E60450954095D5
:1009C000309521953F4F4F4F5F4F089590958095FB
:1009D000709561957F4F8F4F9F4F08950E9423051B
:1009E000A59F900DB49F900DA49F800D911D112483
:1009F0000895B7FF0C94EE040E94EE04821B930B43
:100A00000895A1E21A2EAA1BBB1BFD010DC0AA1F4F
:100A1000BB1FEE1FFF1FA217B307E407F50720F067
:100A2000A21BB30BE40BF50B661F771F881F991FE2
:100A30001A9469F760957095809590959B01AC012B
:100A4000BD01CF010895A29FB001B39FC001A39F34
:100A5000700D811D1124911DB29F700D811D1124F7
:100A6000911D0895EE0FFF1F881F8BBF0790F69111
:080A7000E02D1994F894FFCF6A
:040A78000100000079
:00000001FF
